{
  "abi": [
    {
      "inputs": [],
      "stateMutability": "nonpayable",
      "type": "constructor"
    },
    {
      "inputs": [
        {
          "internalType": "uint32",
          "name": "by",
          "type": "uint32"
        }
      ],
      "name": "advanceTime",
      "outputs": [],
      "stateMutability": "nonpayable",
      "type": "function"
    },
    {
      "inputs": [
        {
          "internalType": "uint32",
          "name": "secondsAgo",
          "type": "uint32"
        }
      ],
      "name": "checkTimeWeightedAveragesAlwaysFitsType",
      "outputs": [],
      "stateMutability": "view",
      "type": "function"
    },
    {
      "inputs": [
        {
          "internalType": "uint16",
          "name": "index",
          "type": "uint16"
        }
      ],
      "name": "checkTwoAdjacentObservationsTickCumulativeModTimeElapsedAlways0",
      "outputs": [],
      "stateMutability": "view",
      "type": "function"
    },
    {
      "inputs": [],
      "name": "echidna_AlwaysInitialized",
      "outputs": [
        {
          "internalType": "bool",
          "name": "",
          "type": "bool"
        }
      ],
      "stateMutability": "view",
      "type": "function"
    },
    {
      "inputs": [],
      "name": "echidna_canAlwaysObserve0IfInitialized",
      "outputs": [
        {
          "internalType": "bool",
          "name": "",
          "type": "bool"
        }
      ],
      "stateMutability": "view",
      "type": "function"
    },
    {
      "inputs": [],
      "name": "echidna_cardinalityAlwaysLteNext",
      "outputs": [
        {
          "internalType": "bool",
          "name": "",
          "type": "bool"
        }
      ],
      "stateMutability": "view",
      "type": "function"
    },
    {
      "inputs": [],
      "name": "echidna_indexAlwaysLtCardinality",
      "outputs": [
        {
          "internalType": "bool",
          "name": "",
          "type": "bool"
        }
      ],
      "stateMutability": "view",
      "type": "function"
    },
    {
      "inputs": [
        {
          "internalType": "uint16",
          "name": "cardinality",
          "type": "uint16"
        }
      ],
      "name": "grow",
      "outputs": [],
      "stateMutability": "nonpayable",
      "type": "function"
    },
    {
      "inputs": [
        {
          "internalType": "uint32",
          "name": "time",
          "type": "uint32"
        },
        {
          "internalType": "int24",
          "name": "tick",
          "type": "int24"
        },
        {
          "internalType": "uint128",
          "name": "liquidity",
          "type": "uint128"
        }
      ],
      "name": "initialize",
      "outputs": [],
      "stateMutability": "nonpayable",
      "type": "function"
    },
    {
      "inputs": [
        {
          "internalType": "uint32",
          "name": "advanceTimeBy",
          "type": "uint32"
        },
        {
          "internalType": "int24",
          "name": "tick",
          "type": "int24"
        },
        {
          "internalType": "uint128",
          "name": "liquidity",
          "type": "uint128"
        }
      ],
      "name": "update",
      "outputs": [],
      "stateMutability": "nonpayable",
      "type": "function"
    }
  ],
  "bytecode": {
    "object": "0x608060405234801561001057600080fd5b5060405161001d9061005f565b604051809103906000f080158015610039573d6000803e3d6000fd5b50600080546001600160a01b0319166001600160a01b039290921691909117905561006c565b6115b98061115383390190565b6110d88061007b6000396000f3fe608060405234801561001057600080fd5b506004361061009e5760003560e01c8063ae505b5211610066578063ae505b5214610104578063de3277391461010c578063e9f71da914610114578063f7fd2cfa14610127578063f7fe55101461013a5761009e565b80634d50e016146100a3578063761eb23e146100b857806391e2b63c146100cb578063a9583576146100e9578063ae13714b146100fc575b600080fd5b6100b66100b1366004610e8f565b61014d565b005b6100b66100c6366004610e34565b6101ef565b6100d3610254565b6040516100e09190610ff3565b60405180910390f35b6100b66100f7366004610e73565b610372565b6100d36105a3565b6100d36106d1565b6100d36107e3565b6100b6610122366004610e34565b6108fd565b6100b6610135366004610e73565b610bb9565b6100b6610148366004610e8f565b610bf2565b6000546040805160608101825263ffffffff86168152600285900b60208201526001600160801b03841681830152905163daf50f6b60e01b81526001600160a01b039092169163daf50f6b916101a591600401611007565b600060405180830381600087803b1580156101bf57600080fd5b505af11580156101d3573d6000803e3d6000fd5b50506000805460ff60a01b1916600160a01b1790555050505050565b600054604051633b0f591f60e11b81526001600160a01b039091169063761eb23e9061021f90849060040161101b565b600060405180830381600087803b15801561023957600080fd5b505af115801561024d573d6000803e3d6000fd5b5050505050565b6000805460405163252c09d760e01b815282916001600160a01b03169063252c09d790610285908490600401610ffe565b60806040518083038186803b15801561029d57600080fd5b505afa1580156102b1573d6000803e3d6000fd5b505050506040513d601f19601f820116820180604052508101906102d59190610eea565b935050505060008054906101000a90046001600160a01b03166001600160a01b031663dbffe9ad6040518163ffffffff1660e01b815260040160206040518083038186803b15801561032657600080fd5b505afa15801561033a573d6000803e3d6000fd5b505050506040513d601f19601f8201168201806040525081019061035e9190610e57565b61ffff16158061036b5750805b9150505b90565b600054600160a01b900460ff1661038857600080fd5b60008163ffffffff161161039b57600080fd5b60408051600280825260608201835260009260208301908036833701905050905081816000815181106103ca57fe5b602002602001019063ffffffff16908163ffffffff16815250506000816001815181106103f357fe5b63ffffffff909216602092830291909101909101526000805460405163883bdbfd60e01b815282916001600160a01b03169063883bdbfd90610439908690600401610fa9565b60006040518083038186803b15801561045157600080fd5b505afa158015610465573d6000803e3d6000fd5b505050506040513d6000823e601f3d908101601f1916820160405261048d9190810190610d73565b915091506000826000815181106104a057fe5b6020026020010151836001815181106104b557fe5b602002602001015103905060008563ffffffff1660060b8260060b816104d757fe5b05905060008260060b12801561050457508563ffffffff1660060b8260060b816104fd57fe5b0760060b15155b1561050e57600019015b627fffff600682900b1380159061052d5750627fffff19600682900b12155b61053357fe5b600060208460008151811061054457fe5b60200260200101518560018151811061055957fe5b6020026020010151036001600160a01b0316901b6001600160a01b0380168863ffffffff16028161058657fe5b0490506001600160801b0381111561059a57fe5b50505050505050565b60008060009054906101000a90046001600160a01b03166001600160a01b031663dbffe9ad6040518163ffffffff1660e01b815260040160206040518083038186803b1580156105f257600080fd5b505afa158015610606573d6000803e3d6000fd5b505050506040513d601f19601f8201168201806040525081019061062a9190610e57565b61ffff1660008054906101000a90046001600160a01b03166001600160a01b0316632986c0e56040518163ffffffff1660e01b815260040160206040518083038186803b15801561067a57600080fd5b505afa15801561068e573d6000803e3d6000fd5b505050506040513d601f19601f820116820180604052508101906106b29190610e57565b61ffff1610806106cc5750600054600160a01b900460ff16155b905090565b60008054600160a01b900460ff166106eb5750600161036f565b6040805160018082528183019092526000916020808301908036833701905050905060008160008151811061071c57fe5b63ffffffff90921660209283029190910190910152600080546040516001600160a01b039091169063883bdbfd60e01b9061075b908590602401610fa9565b60408051601f198184030181529181526020820180516001600160e01b03166001600160e01b03199094169390931790925290516107999190610f70565b600060405180830381855afa9150503d80600081146107d4576040519150601f19603f3d011682016040523d82523d6000602084013e6107d9565b606091505b5090935050505090565b60008060009054906101000a90046001600160a01b03166001600160a01b031663dd158c186040518163ffffffff1660e01b815260040160206040518083038186803b15801561083257600080fd5b505afa158015610846573d6000803e3d6000fd5b505050506040513d601f19601f8201168201806040525081019061086a9190610e57565b61ffff1660008054906101000a90046001600160a01b03166001600160a01b031663dbffe9ad6040518163ffffffff1660e01b815260040160206040518083038186803b1580156108ba57600080fd5b505afa1580156108ce573d6000803e3d6000fd5b505050506040513d601f19601f820116820180604052508101906108f29190610e57565b61ffff161115905090565b60008060009054906101000a90046001600160a01b03166001600160a01b031663dbffe9ad6040518163ffffffff1660e01b815260040160206040518083038186803b15801561094c57600080fd5b505afa158015610960573d6000803e3d6000fd5b505050506040513d601f19601f820116820180604052508101906109849190610e57565b90508061ffff168261ffff16108015610a33575060005460408051632986c0e560e01b8152905161ffff8416926001600160a01b031691632986c0e5916004808301926020929190829003018186803b1580156109e057600080fd5b505afa1580156109f4573d6000803e3d6000fd5b505050506040513d601f19601f82011682018060405250810190610a189190610e57565b60010161ffff1681610a2657fe5b0661ffff168261ffff1614155b610a3c57600080fd5b60008054819081906001600160a01b031663252c09d761ffff871615610a655760018703610a6a565b600186035b6040518263ffffffff1660e01b8152600401610a86919061101b565b60806040518083038186803b158015610a9e57600080fd5b505afa158015610ab2573d6000803e3d6000fd5b505050506040513d601f19601f82011682018060405250810190610ad69190610eea565b6000805460405163252c09d760e01b81529598509396509094509283928392506001600160a01b03169063252c09d790610b14908b9060040161101b565b60806040518083038186803b158015610b2c57600080fd5b505afa158015610b40573d6000803e3d6000fd5b505050506040513d601f19601f82011682018060405250810190610b649190610eea565b9350509250925083610b7557600080fd5b80610b7f57600080fd5b85830363ffffffff8116610b8f57fe5b8063ffffffff1686840360060b81610ba357fe5b0760060b15610bae57fe5b505050505050505050565b610bc281610c81565b600054604051637bfe967d60e11b81526001600160a01b039091169063f7fd2cfa9061021f90849060040161102a565b610bfb83610c81565b6000546040805160608101825263ffffffff86168152600285900b60208201526001600160801b0384168183015290516365829dc560e01b81526001600160a01b03909216916365829dc591610c5391600401611007565b600060405180830381600087803b158015610c6d57600080fd5b505af115801561059a573d6000803e3d6000fd5b60005463ffffffff600160a81b90910481168281019091161015610ca457600080fd5b6000805463ffffffff600160a81b80830482169094011690920263ffffffff60a81b19909216919091179055565b600082601f830112610ce2578081fd5b81516020610cf7610cf28361105f565b61103b565b8281528181019085830183850287018401881015610d13578586fd5b855b85811015610d3857610d2682610d5c565b84529284019290840190600101610d15565b5090979650505050505050565b8051600681900b8114610d5757600080fd5b919050565b80516001600160a01b0381168114610d5757600080fd5b60008060408385031215610d85578182fd5b825167ffffffffffffffff80821115610d9c578384fd5b818501915085601f830112610daf578384fd5b81516020610dbf610cf28361105f565b82815281810190858301838502870184018b1015610ddb578889fd5b8896505b84871015610e0457610df081610d45565b835260019690960195918301918301610ddf565b5091880151919650909350505080821115610e1d578283fd5b50610e2a85828601610cd2565b9150509250929050565b600060208284031215610e45578081fd5b8135610e508161107d565b9392505050565b600060208284031215610e68578081fd5b8151610e508161107d565b600060208284031215610e84578081fd5b8135610e5081611090565b600080600060608486031215610ea3578081fd5b8335610eae81611090565b92506020840135600281900b8114610ec4578182fd5b915060408401356001600160801b0381168114610edf578182fd5b809150509250925092565b60008060008060808587031215610eff578081fd5b8451610f0a81611090565b9350610f1860208601610d45565b9250610f2660408601610d5c565b915060608501518015158114610f3a578182fd5b939692955090935050565b805163ffffffff16825260208082015160020b908301526040908101516001600160801b0316910152565b60008251815b81811015610f905760208186018101518583015201610f76565b81811115610f9e5782828501525b509190910192915050565b6020808252825182820181905260009190848201906040850190845b81811015610fe757835163ffffffff1683529284019291840191600101610fc5565b50909695505050505050565b901515815260200190565b90815260200190565b606081016110158284610f45565b92915050565b61ffff91909116815260200190565b63ffffffff91909116815260200190565b60405181810167ffffffffffffffff8111828210171561105757fe5b604052919050565b600067ffffffffffffffff82111561107357fe5b5060209081020190565b61ffff8116811461108d57600080fd5b50565b63ffffffff8116811461108d57600080fdfea26469706673582212208f4c31cb888d615a69912c36a1dd1c594ad929cfb36d9f5e15a1bc505b8fe7f464736f6c63430007060033608060405234801561001057600080fd5b50611599806100206000396000f3fe608060405234801561001057600080fd5b50600436106100ea5760003560e01c8063761eb23e1161008c578063daf50f6b11610066578063daf50f6b146101eb578063dbffe9ad146101fe578063dd158c1814610206578063f7fd2cfa1461020e576100ea565b8063761eb23e146101a4578063883bdbfd146101b7578063d81740db146101d8576100ea565b80632986c0e5116100c85780632986c0e5146101455780633eaf5d9f1461015a57806365829dc51461016f57806374e69cef14610184576100ea565b806316ada547146100ef5780631a6865021461010d578063252c09d714610122575b600080fd5b6100f7610221565b6040516101049190611521565b60405180910390f35b61011561022e565b60405161010491906114f5565b6101356101303660046113f8565b610245565b6040516101049493929190611532565b61014d61028a565b6040516101049190611509565b61016261029a565b60405161010491906114ba565b61018261017d366004611394565b6102ab565b005b610197610192366004611316565b6103b9565b6040516101049190611518565b6101826101b23660046113d6565b610453565b6101ca6101c5366004611316565b61048e565b604051610104929190611434565b6101826101e63660046112a6565b610521565b6101826101f9366004611394565b610698565b61014d6107b8565b61014d6107c8565b61018261021c366004611410565b6107d8565b61ffff5463ffffffff1681565b61ffff54600160381b90046001600160801b031681565b60008161ffff811061025657600080fd5b015463ffffffff81169150600160201b810460060b90600160581b81046001600160a01b031690600160f81b900460ff1684565b61ffff8054600160b81b90041681565b61ffff54600160201b900460020b81565b6102bb61021c6020830183611410565b61ffff805461031191600091600160b81b810482169163ffffffff80831692600160201b810460020b926001600160801b03600160381b83041692600160c81b8304821692600160d81b9004909116906107fa16565b61ffff8054928116600160b81b0261ffff60b81b19928216600160c81b0261ffff60c81b1990941693909317919091169190911790556103576040820160208301611373565b61ffff805460029290920b62ffffff16600160201b0266ffffff000000001990921691909117905561038f60608201604083016113af565b61ffff60076101000a8154816001600160801b0302191690836001600160801b0316021790555050565b61ffff805460009163ffffffff821691600160201b810460020b916001600160801b03600160381b83041691600160b81b900416845a905061044385898980806020026020016040519081016040528093929190818152602001838360200280828437600092018290525061ffff805491969594508b93508992508a91600160c81b900416610996565b50505a9003979650505050505050565b61ffff805461046d91600091600160d81b90041683610af0565b61ffff8054918116600160d81b0261ffff60d81b1990921691909117905550565b60608061051661ffff60009054906101000a900463ffffffff16858580806020026020016040519081016040528093929190818152602001838360200280828437600092018290525061ffff80549196959450600160201b820460020b9350600160b81b8204811692506001600160801b03600160381b83041691600160c81b900416610996565b915091509250929050565b61ffff8054600160201b810460020b916001600160801b03600160381b83041691600160b81b8104821691600160c81b8204811691600160d81b81049091169063ffffffff1660005b878110156106015788888281811061057e57fe5b6105949260206060909202019081019150611410565b909101906105a8600086848a8a89896107fa565b90955093508888828181106105b957fe5b90506060020160200160208101906105d19190611373565b96508888828181106105df57fe5b90506060020160400160208101906105f791906113af565b955060010161056a565b5061ffff805463ffffffff90921663ffffffff19948216600160c81b0261ffff60c81b19968316600160b81b0261ffff60b81b196001600160801b03909916600160381b02600160381b600160b81b031960029b909b0b62ffffff16600160201b0266ffffff0000000019909616959095179990991693909317969096169690961793909316929092171691909117909155505050565b61ffff8054600160c81b900416156106cb5760405162461bcd60e51b81526004016106c2906114c8565b60405180910390fd5b6106d86020820182611410565b61ffff805463ffffffff191663ffffffff929092169190911790556107036040820160208301611373565b61ffff805460029290920b62ffffff16600160201b0266ffffff000000001990921691909117905561073b60608201604083016113af565b61ffff80546001600160801b0392909216600160381b02600160381b600160b81b031990921691909117905561077f6107776020830183611410565b600090610b96565b61ffff8054928116600160c81b0261ffff60c81b19928216600160d81b0261ffff60d81b19909416939093179190911691909117905550565b61ffff8054600160c81b90041681565b61ffff8054600160d81b90041681565b61ffff805463ffffffff19811663ffffffff9182169390930116919091179055565b6000806000898961ffff1661ffff811061081057fe5b60408051608081018252919092015463ffffffff808216808452600160201b8304600690810b810b900b6020850152600160581b83046001600160a01b031694840194909452600160f81b90910460ff16151560608301529092508916141561087f578885925092505061098a565b8461ffff168461ffff161180156108a057506001850361ffff168961ffff16145b156108ad578391506108b1565b8491505b8161ffff168960010161ffff16816108c557fe5b0692506108d481898989610be2565b8a8461ffff1661ffff81106108e557fe5b825191018054602084015160408501516060909501511515600160f81b026001600160f81b036001600160a01b03909616600160581b027fff0000000000000000000000000000000000000000ffffffffffffffffffffff60069390930b66ffffffffffffff16600160201b026affffffffffffff000000001963ffffffff90971663ffffffff19909516949094179590951692909217169290921792909216179055505b97509795505050505050565b60608060008361ffff16116109d6576040805162461bcd60e51b81526020600482015260016024820152604960f81b604482015290519081900360640190fd5b865167ffffffffffffffff811180156109ee57600080fd5b50604051908082528060200260200182016040528015610a18578160200160208202803683370190505b509150865167ffffffffffffffff81118015610a3357600080fd5b50604051908082528060200260200182016040528015610a5d578160200160208202803683370190505b50905060005b8751811015610ae357610a8e8a8a8a8481518110610a7d57fe5b60200260200101518a8a8a8a610c85565b848381518110610a9a57fe5b60200260200101848481518110610aad57fe5b60200260200101826001600160a01b03166001600160a01b03168152508260060b60060b81525050508080600101915050610a63565b5097509795505050505050565b6000808361ffff1611610b2e576040805162461bcd60e51b81526020600482015260016024820152604960f81b604482015290519081900360640190fd5b8261ffff168261ffff1611610b44575081610b8f565b825b8261ffff168161ffff161015610b8a576001858261ffff1661ffff8110610b6957fe5b01805463ffffffff191663ffffffff92909216919091179055600101610b46565b508190505b9392505050565b6040805160808101825263ffffffff9283168082526000602083018190529282019290925260016060909101819052835463ffffffff1916909117909116600160f81b17909155908190565b610bea611268565b600085600001518503905060405180608001604052808663ffffffff1681526020018263ffffffff168660020b0288602001510160060b81526020016000856001600160801b031611610c3e576001610c40565b845b6001600160801b031663ffffffff60801b608085901b1681610c5e57fe5b048860400151016001600160a01b0316815260200160011515815250915050949350505050565b60008063ffffffff8716610d2b576000898661ffff1661ffff8110610ca657fe5b60408051608081018252919092015463ffffffff808216808452600160201b8304600690810b810b900b6020850152600160581b83046001600160a01b031694840194909452600160f81b90910460ff16151560608301529092508a1614610d1757610d14818a8988610be2565b90505b80602001518160400151925092505061098a565b868803600080610d408c8c858c8c8c8c610e0f565b91509150816000015163ffffffff168363ffffffff161415610d7257816020015182604001519450945050505061098a565b805163ffffffff84811691161415610d9a57806020015181604001519450945050505061098a565b8151815160208085015190840151918390039286039163ffffffff80841692908516910360060b81610dc857fe5b05028460200151018263ffffffff168263ffffffff1686604001518660400151036001600160a01b03160281610dfa57fe5b0485604001510196509650505050505061098a565b610e17611268565b610e1f611268565b888561ffff1661ffff8110610e3057fe5b60408051608081018252919092015463ffffffff8116808352600160201b8204600690810b810b900b6020840152600160581b82046001600160a01b031693830193909352600160f81b900460ff16151560608201529250610e9490899089611009565b15610ecc578663ffffffff16826000015163ffffffff161415610eb65761098a565b81610ec383898988610be2565b9150915061098a565b888361ffff168660010161ffff1681610ee157fe5b0661ffff1661ffff8110610ef157fe5b60408051608081018252929091015463ffffffff81168352600160201b8104600690810b810b900b60208401526001600160a01b03600160581b8204169183019190915260ff600160f81b90910416151560608201819052909250610fa657604080516080810182528a5463ffffffff81168252600160201b8104600690810b810b900b6020830152600160581b81046001600160a01b031692820192909252600160f81b90910460ff161515606082015291505b610fb588836000015189611009565b610fec576040805162461bcd60e51b815260206004820152600360248201526213d31160ea1b604482015290519081900360640190fd5b610ff989898988876110ca565b9150915097509795505050505050565b60008363ffffffff168363ffffffff161115801561103357508363ffffffff168263ffffffff1611155b1561104f578163ffffffff168363ffffffff1611159050610b8f565b60008463ffffffff168463ffffffff1611611076578363ffffffff16600160201b0161107e565b8363ffffffff165b64ffffffffff16905060008563ffffffff168463ffffffff16116110ae578363ffffffff16600160201b016110b6565b8363ffffffff165b64ffffffffff169091111595945050505050565b6110d2611268565b6110da611268565b60008361ffff168560010161ffff16816110f057fe5b0661ffff169050600060018561ffff16830103905060005b506002818301048961ffff8716828161111d57fe5b0661ffff811061112957fe5b60408051608081018252929091015463ffffffff81168352600160201b8104600690810b810b900b60208401526001600160a01b03600160581b8204169183019190915260ff600160f81b9091041615156060820181905290955061119357806001019250611108565b898661ffff1682600101816111a457fe5b0661ffff81106111b057fe5b60408051608081018252929091015463ffffffff81168352600160201b8104600690810b810b900b60208401526001600160a01b03600160581b8204169183019190915260ff600160f81b9091041615156060820152855190945060009061121a908b908b611009565b905080801561123357506112338a8a8760000151611009565b1561123e575061125b565b8061124e57600182039250611255565b8160010193505b50611108565b5050509550959350505050565b60408051608081018252600080825260208201819052918101829052606081019190915290565b6000606082840312156112a0578081fd5b50919050565b600080602083850312156112b8578182fd5b823567ffffffffffffffff808211156112cf578384fd5b818501915085601f8301126112e2578384fd5b8135818111156112f0578485fd5b866020606083028501011115611304578485fd5b60209290920196919550909350505050565b60008060208385031215611328578182fd5b823567ffffffffffffffff8082111561133f578384fd5b818501915085601f830112611352578384fd5b813581811115611360578485fd5b8660208083028501011115611304578485fd5b600060208284031215611384578081fd5b81358060020b8114610b8f578182fd5b6000606082840312156113a5578081fd5b610b8f838361128f565b6000602082840312156113c0578081fd5b81356001600160801b0381168114610b8f578182fd5b6000602082840312156113e7578081fd5b813561ffff81168114610b8f578182fd5b600060208284031215611409578081fd5b5035919050565b600060208284031215611421578081fd5b813563ffffffff81168114610b8f578182fd5b604080825283519082018190526000906020906060840190828701845b8281101561147057815160060b84529284019290840190600101611451565b50505083810382850152845180825285830191830190845b818110156114ad5783516001600160a01b031683529284019291840191600101611488565b5090979650505050505050565b60029190910b815260200190565b602080825260139082015272185b1c9958591e481a5b9a5d1a585b1a5e9959606a1b604082015260600190565b6001600160801b0391909116815260200190565b61ffff91909116815260200190565b90815260200190565b63ffffffff91909116815260200190565b63ffffffff94909416845260069290920b60208401526001600160a01b03166040830152151560608201526080019056fea2646970667358221220db75c0e3a54a57915092e6241b49efcaf98fc37eb3b5bd8ac418aab65bd49eec64736f6c63430007060033",
    "linkReferences": {}
  },
  "methodIdentifiers": {
    "advanceTime(uint32)": "f7fd2cfa",
    "checkTimeWeightedAveragesAlwaysFitsType(uint32)": "a9583576",
    "checkTwoAdjacentObservationsTickCumulativeModTimeElapsedAlways0(uint16)": "e9f71da9",
    "echidna_AlwaysInitialized()": "91e2b63c",
    "echidna_canAlwaysObserve0IfInitialized()": "ae505b52",
    "echidna_cardinalityAlwaysLteNext()": "de327739",
    "echidna_indexAlwaysLtCardinality()": "ae13714b",
    "grow(uint16)": "761eb23e",
    "initialize(uint32,int24,uint128)": "4d50e016",
    "update(uint32,int24,uint128)": "f7fe5510"
  },
  "id": 42
}