{
  "abi": [
    {
      "anonymous": false,
      "inputs": [
        {
          "indexed": false,
          "internalType": "address",
          "name": "pool",
          "type": "address"
        }
      ],
      "name": "PoolDeployed",
      "type": "event"
    },
    {
      "inputs": [
        {
          "internalType": "address",
          "name": "factory",
          "type": "address"
        },
        {
          "internalType": "address",
          "name": "token0",
          "type": "address"
        },
        {
          "internalType": "address",
          "name": "token1",
          "type": "address"
        },
        {
          "internalType": "uint24",
          "name": "fee",
          "type": "uint24"
        },
        {
          "internalType": "int24",
          "name": "tickSpacing",
          "type": "int24"
        }
      ],
      "name": "deploy",
      "outputs": [
        {
          "internalType": "address",
          "name": "pool",
          "type": "address"
        }
      ],
      "stateMutability": "nonpayable",
      "type": "function"
    },
    {
      "inputs": [],
      "name": "parameters",
      "outputs": [
        {
          "internalType": "address",
          "name": "factory",
          "type": "address"
        },
        {
          "internalType": "address",
          "name": "token0",
          "type": "address"
        },
        {
          "internalType": "address",
          "name": "token1",
          "type": "address"
        },
        {
          "internalType": "uint24",
          "name": "fee",
          "type": "uint24"
        },
        {
          "internalType": "int24",
          "name": "tickSpacing",
          "type": "int24"
        }
      ],
      "stateMutability": "view",
      "type": "function"
    }
  ],
  "bytecode": {
    "object": "0x608060405234801561001057600080fd5b50615b6f806100206000396000f3fe608060405234801561001057600080fd5b50600436106100365760003560e01c8063890357301461003b578063fad5359f14610085575b600080fd5b6100436100eb565b604080516001600160a01b0396871681529486166020860152929094168383015262ffffff16606083015260029290920b608082015290519081900360a00190f35b6100cf600480360360a081101561009b57600080fd5b506001600160a01b03813581169160208101358216916040820135169062ffffff606082013516906080013560020b610121565b604080516001600160a01b039092168252519081900360200190f35b600054600154600280546001600160a01b03938416939283169281169162ffffff600160a01b83041691600160b81b9004900b85565b6040805160a0810182526001600160a01b03878116808352878216602080850182905292881684860181905262ffffff888116606080880182905260028a810b6080909901899052600080546001600160a01b03199081169098178155600180548916909717909655805490961690931762ffffff60a01b1916600160a01b9091021762ffffff60b81b1916600160b81b87860b9092169190910217909255845189831b6bffffffffffffffffffffffff19908116828601529289901b909216603483015260e887811b6001600160e81b03191660488401529390931b604b8201528351808203602e018152604e9091019384905280519101209091610226906102bc565b8190604051809103906000f5905080158015610246573d6000803e3d6000fd5b50604080516001600160a01b038316815290519192507ff0d1eeab175eee2e20b8dc452773bf2257b25724b323b42bc6e5b4616233ae1f919081900360200190a1600080546001600160a01b0319908116909155600180549091169055600280546001600160d01b031916905595945050505050565b615870806102ca8339019056fe610160604052635f7b26e062010007553480156200001c57600080fd5b503060601b60805260408051630890357360e41b81529051600091339163890357309160048082019260a092909190829003018186803b1580156200006057600080fd5b505afa15801562000075573d6000803e3d6000fd5b505050506040513d60a08110156200008c57600080fd5b508051602080830151604084015160608086015160809096015160e896871b6001600160e81b0319166101005291811b6001600160601b031990811660e05292811b831660c0529390931b1660a052600282810b900b90921b6101205291506200010190829062000119811b62002ba517901c565b60801b6001600160801b031916610140525062000187565b60008082600281900b620d89e719816200012f57fe5b05029050600083600281900b620d89e8816200014757fe5b0502905060008460020b83830360020b816200015f57fe5b0560010190508062ffffff166001600160801b038016816200017d57fe5b0495945050505050565b60805160601c60a05160601c60c05160601c60e05160601c6101005160e81c6101205160e81c6101405160801c61561c620002546000398061206b5280614b1b5280614b52525080610c9052806129575280614b865280614bb8525080610d7f5280611a485280611a7f52806129a452508061123d5280611b025280611f7152806124a6528061297b5280613e4a525080610962528061136b5280611ad15280611f0b52806124205280613d015250806120f852806122df5280612933525080612c1c525061561c6000f3fe608060405234801561001057600080fd5b50600436106101da5760003560e01c806370cf754a11610104578063d0c93a7c116100a2578063f305839911610071578063f305839914610886578063f30dba931461088e578063f637731d14610910578063f6eb760f14610936576101da565b8063d0c93a7c14610822578063d21220a714610841578063d380c67914610849578063ddca3f4314610866576101da565b8063883bdbfd116100de578063883bdbfd1461067e578063a34123a714610785578063a38807f2146107bf578063c45a01551461081a576101da565b806370cf754a146106115780638206a4d11461061957806385b6672914610641576101da565b806332148f671161017c578063490e6cbc1161014b578063490e6cbc146104bd5780634f1eb3d814610547578063514ea4bf146105985780635339c296146105f1576101da565b806332148f671461039b5780633850c7bd146103bc5780633c8a7d8d1461041557806346141319146104b5576101da565b806316ada547116101b857806316ada547146102cf5780631a686502146102e95780631ad8b03b1461030d578063252c09d714610344576101da565b806307e32f0a146101df5780630dfe1681146101fe578063128acb0814610222575b600080fd5b6101fc600480360360208110156101f557600080fd5b5035610953565b005b610206610960565b604080516001600160a01b039092168252519081900360200190f35b6102b6600480360360a081101561023857600080fd5b6001600160a01b0382358116926020810135151592604082013592606083013516919081019060a081016080820135600160201b81111561027857600080fd5b82018360208201111561028a57600080fd5b803590602001918460018302840111600160201b831117156102ab57600080fd5b509092509050610984565b6040805192835260208301919091528051918290030190f35b6102d7611523565b60408051918252519081900360200190f35b6102f161152b565b604080516001600160801b039092168252519081900360200190f35b61031561153a565b60405180836001600160801b03168152602001826001600160801b031681526020019250505060405180910390f35b6103616004803603602081101561035a57600080fd5b5035611554565b6040805163ffffffff909516855260069390930b60208501526001600160a01b039091168383015215156060830152519081900360800190f35b6101fc600480360360208110156103b157600080fd5b503561ffff16611599565b6103c4611693565b604080516001600160a01b03909816885260029690960b602088015261ffff9485168787015292841660608701529216608085015260ff90911660a0840152151560c0830152519081900360e00190f35b6102b6600480360360a081101561042b57600080fd5b6001600160a01b03823516916020810135600290810b92604083013590910b916001600160801b036060820135169181019060a081016080820135600160201b81111561047757600080fd5b82018360208201111561048957600080fd5b803590602001918460018302840111600160201b831117156104aa57600080fd5b5090925090506116e3565b6102d761199f565b6101fc600480360360808110156104d357600080fd5b6001600160a01b038235169160208101359160408201359190810190608081016060820135600160201b81111561050957600080fd5b82018360208201111561051b57600080fd5b803590602001918460018302840111600160201b8311171561053c57600080fd5b5090925090506119a5565b610315600480360360a081101561055d57600080fd5b506001600160a01b03813516906020810135600290810b91604081013590910b906001600160801b0360608201358116916080013516611e00565b6105b5600480360360208110156105ae57600080fd5b503561201a565b604080516001600160801b0396871681526020810195909552848101939093529084166060840152909216608082015290519081900360a00190f35b6102d76004803603602081101561060757600080fd5b503560010b612057565b6102f1612069565b6101fc6004803603604081101561062f57600080fd5b5060ff8135811691602001351661208d565b6103156004803603606081101561065757600080fd5b506001600160a01b03813516906001600160801b0360208201358116916040013516612271565b6106ec6004803603602081101561069457600080fd5b810190602081018135600160201b8111156106ae57600080fd5b8201836020820111156106c057600080fd5b803590602001918460208302840111600160201b831117156106e157600080fd5b50909250905061253e565b604051808060200180602001838103835285818151815260200191508051906020019060200280838360005b83811015610730578181015183820152602001610718565b50505050905001838103825284818151815260200191508051906020019060200280838360005b8381101561076f578181015183820152602001610757565b5050505090500194505050505060405180910390f35b6102b66004803603606081101561079b57600080fd5b508035600290810b91602081013590910b90604001356001600160801b03166125cb565b6107e9600480360360408110156107d557600080fd5b508035600290810b9160200135900b612742565b6040805160069490940b84526001600160a01b03909216602084015263ffffffff1682820152519081900360600190f35b610206612931565b61082a612955565b6040805160029290920b8252519081900360200190f35b610206612979565b6101fc6004803603602081101561085f57600080fd5b503561299d565b61086e6129a2565b6040805162ffffff9092168252519081900360200190f35b6102d76129c6565b6108ae600480360360208110156108a457600080fd5b503560020b6129cc565b604080516001600160801b039099168952600f9790970b602089015287870195909552606087019390935260069190910b60808601526001600160a01b031660a085015263ffffffff1660c0840152151560e083015251908190036101000190f35b6101fc6004803603602081101561092657600080fd5b50356001600160a01b0316612a36565b6101fc6004803603602081101561094c57600080fd5b5035612ba0565b6201000780549091019055565b7f000000000000000000000000000000000000000000000000000000000000000081565b60008061098f612c11565b856109c6576040805162461bcd60e51b8152602060048201526002602482015261415360f01b604482015290519081900360640190fd5b6040805160e0810182526000546001600160a01b0381168252600160a01b8104600290810b810b900b602083015261ffff600160b81b8204811693830193909352600160c81b810483166060830152600160d81b8104909216608082015260ff600160e81b8304811660a0830152600160f01b909204909116151560c08201819052610a7f576040805162461bcd60e51b81526020600482015260036024820152624c4f4b60e81b604482015290519081900360640190fd5b87610aca5780600001516001600160a01b0316866001600160a01b0316118015610ac5575073fffd8963efd1fc6a506488495d951d5263988d266001600160a01b038716105b610afc565b80600001516001600160a01b0316866001600160a01b0316108015610afc57506401000276a36001600160a01b038716115b610b33576040805162461bcd60e51b815260206004820152600360248201526214d41360ea1b604482015290519081900360640190fd5b6000805460ff60f01b191681556040805160c08101909152808a610b625760048460a0015160ff16901c610b75565b60108460a0015160ff1681610b7357fe5b065b60ff1681526004546001600160801b03166020820152604001610b96612c48565b63ffffffff168152602001600060060b815260200160006001600160a01b031681526020016000151581525090506000808913905060006040518060e001604052808b81526020016000815260200185600001516001600160a01b03168152602001856020015160020b81526020018c610c1257600254610c16565b6001545b815260200160006001600160801b0316815260200184602001516001600160801b031681525090505b805115801590610c655750886001600160a01b031681604001516001600160a01b031614155b1561102f57610c72615583565b60408201516001600160a01b031681526060820151610cb5906006907f00000000000000000000000000000000000000000000000000000000000000008f612c50565b15156040830152600290810b810b60208301819052620d89e719910b1215610ce657620d89e7196020820152610d05565b6020810151620d89e860029190910b1315610d0557620d89e860208201525b610d128160200151612d92565b6001600160a01b031660608201526040820151610da3908d610d4c578b6001600160a01b031683606001516001600160a01b031611610d66565b8b6001600160a01b031683606001516001600160a01b0316105b610d74578260600151610d76565b8b5b60c085015185517f00000000000000000000000000000000000000000000000000000000000000006130c3565b60c085015260a084015260808301526001600160a01b031660408301528215610e0557610dd98160c001518260800151016132b5565b825103825260a0810151610dfb90610df0906132b5565b6020840151906132cb565b6020830152610e40565b610e128160a001516132b5565b825101825260c08101516080820151610e3a91610e2f91016132b5565b6020840151906132e7565b60208301525b835160ff1615610e86576000846000015160ff168260c0015181610e6057fe5b60c0840180519290910491829003905260a0840180519091016001600160801b03169052505b60c08201516001600160801b031615610ec557610eb98160c00151600160801b8460c001516001600160801b03166132fd565b60808301805190910190525b80606001516001600160a01b031682604001516001600160a01b03161415610fee57806040015115610fc5578360a00151610f4f57610f2d846040015160008760200151886040015188602001518a6060015160086133ad909695949392919063ffffffff16565b6001600160a01b03166080860152600690810b900b6060850152600160a08501525b6000610f9b82602001518e610f6657600154610f6c565b84608001515b8f610f7b578560800151610f7f565b6002545b608089015160608a015160408b0151600595949392919061353f565b90508c15610fa7576000035b610fb58360c00151826135f9565b6001600160801b031660c0840152505b8b610fd4578060200151610fdd565b60018160200151035b600290810b900b6060830152611029565b80600001516001600160a01b031682604001516001600160a01b0316146110295761101c82604001516136af565b600290810b900b60608301525b50610c3f565b836020015160020b816060015160020b146110fd5760008061107d86604001518660400151886020015188602001518a606001518b6080015160086139ca909695949392919063ffffffff16565b604085015160608601516000805461ffff60c81b1916600160c81b61ffff958616021761ffff60b81b1916600160b81b95909416949094029290921762ffffff60a01b1916600160a01b62ffffff60029490940b9390931692909202919091176001600160a01b0319166001600160a01b03909116179055506111229050565b6040810151600080546001600160a01b0319166001600160a01b039092169190911790555b8060c001516001600160801b031683602001516001600160801b0316146111685760c0810151600480546001600160801b0319166001600160801b039092169190911790555b8a156111b857608081015160015560a08101516001600160801b0316156111b35760a0810151600380546001600160801b031981166001600160801b03918216909301169190911790555b6111fe565b608081015160025560a08101516001600160801b0316156111fe5760a0810151600380546001600160801b03808216600160801b92839004821690940116029190911790555b8115158b15151461121757602081015181518b03611224565b80600001518a0381602001515b90965094508a1561135d576000851215611266576112667f00000000000000000000000000000000000000000000000000000000000000008d87600003613b65565b6000611270613cb3565b9050336001600160a01b031663fa461e3388888c8c6040518563ffffffff1660e01b815260040180858152602001848152602001806020018281038252848482818152602001925080828437600081840152601f19601f82011690508083019250505095505050505050600060405180830381600087803b1580156112f457600080fd5b505af1158015611308573d6000803e3d6000fd5b50505050611314613cb3565b61131e8289613dec565b1115611357576040805162461bcd60e51b815260206004820152600360248201526249494160e81b604482015290519081900360640190fd5b50611487565b6000861215611394576113947f00000000000000000000000000000000000000000000000000000000000000008d88600003613b65565b600061139e613dfc565b9050336001600160a01b031663fa461e3388888c8c6040518563ffffffff1660e01b815260040180858152602001848152602001806020018281038252848482818152602001925080828437600081840152601f19601f82011690508083019250505095505050505050600060405180830381600087803b15801561142257600080fd5b505af1158015611436573d6000803e3d6000fd5b50505050611442613dfc565b61144c8288613dec565b1115611485576040805162461bcd60e51b815260206004820152600360248201526249494160e81b604482015290519081900360640190fd5b505b60408082015160c083015160608085015184518b8152602081018b90526001600160a01b03948516818701526001600160801b039093169183019190915260020b60808201529151908e169133917fc42079f94a6350d7e6235f29174924f928cc2ac818eb64fed8004e115fbcca679181900360a00190a350506000805460ff60f01b1916600160f01b17905550919890975095505050505050565b620100075481565b6004546001600160801b031681565b6003546001600160801b0380821691600160801b90041682565b60088161ffff811061156557600080fd5b015463ffffffff81169150600160201b810460060b90600160581b81046001600160a01b031690600160f81b900460ff1684565b600054600160f01b900460ff166115dd576040805162461bcd60e51b81526020600482015260036024820152624c4f4b60e81b604482015290519081900360640190fd5b6000805460ff60f01b191690556115f2612c11565b60008054600160d81b900461ffff169061160e60088385613e94565b6000805461ffff808416600160d81b810261ffff60d81b199093169290921790925591925083161461167b576040805161ffff80851682528316602082015281517fac49e518f90a358f652e4400164f05a5d8f7e35e7747279bc3a93dbf584e125a929181900390910190a15b50506000805460ff60f01b1916600160f01b17905550565b6000546001600160a01b03811690600160a01b810460020b9061ffff600160b81b8204811691600160c81b8104821691600160d81b8204169060ff600160e81b8204811691600160f01b90041687565b600080548190600160f01b900460ff1661172a576040805162461bcd60e51b81526020600482015260036024820152624c4f4b60e81b604482015290519081900360640190fd5b6000805460ff60f01b191690556001600160801b03851661174a57600080fd5b60008061179860405180608001604052808c6001600160a01b031681526020018b60020b81526020018a60020b815260200161178e8a6001600160801b0316613f37565b600f0b9052613f48565b925092505081935080925060008060008611156117ba576117b7613cb3565b91505b84156117cb576117c8613dfc565b90505b336001600160a01b031663d348799787878b8b6040518563ffffffff1660e01b815260040180858152602001848152602001806020018281038252848482818152602001925080828437600081840152601f19601f82011690508083019250505095505050505050600060405180830381600087803b15801561184d57600080fd5b505af1158015611861573d6000803e3d6000fd5b5050505060008611156118b857611876613cb3565b6118808388613dec565b11156118b8576040805162461bcd60e51b815260206004820152600260248201526104d360f41b604482015290519081900360640190fd5b8415611908576118c6613dfc565b6118d08287613dec565b1115611908576040805162461bcd60e51b81526020600482015260026024820152614d3160f01b604482015290519081900360640190fd5b8960020b8b60020b8d6001600160a01b03167f7a53080ba414158be7ec69b987b5fb7d07dee101fe85488f0853ae16239d0bde338d8b8b60405180856001600160a01b03168152602001846001600160801b0316815260200183815260200182815260200194505050505060405180910390a450506000805460ff60f01b1916600160f01b17905550919890975095505050505050565b60025481565b600054600160f01b900460ff166119e9576040805162461bcd60e51b81526020600482015260036024820152624c4f4b60e81b604482015290519081900360640190fd5b6000805460ff60f01b191690556119fe612c11565b6004546001600160801b031680611a40576040805162461bcd60e51b81526020600482015260016024820152601360fa1b604482015290519081900360640190fd5b6000611a75867f000000000000000000000000000000000000000000000000000000000000000062ffffff16620f4240614188565b90506000611aac867f000000000000000000000000000000000000000000000000000000000000000062ffffff16620f4240614188565b90506000611ab8613cb3565b90506000611ac4613dfc565b90508815611af757611af77f00000000000000000000000000000000000000000000000000000000000000008b8b613b65565b8715611b2857611b287f00000000000000000000000000000000000000000000000000000000000000008b8a613b65565b336001600160a01b031663e9cbafb085858a8a6040518563ffffffff1660e01b815260040180858152602001848152602001806020018281038252848482818152602001925080828437600081840152601f19601f82011690508083019250505095505050505050600060405180830381600087803b158015611baa57600080fd5b505af1158015611bbe573d6000803e3d6000fd5b505050506000611bcc613cb3565b90506000611bd8613dfc565b905081611be58588613dec565b1115611c1d576040805162461bcd60e51b8152602060048201526002602482015261046360f41b604482015290519081900360640190fd5b80611c288487613dec565b1115611c60576040805162461bcd60e51b8152602060048201526002602482015261463160f01b604482015290519081900360640190fd5b8382038382038115611cef5760008054600160e81b9004600f16908115611c93578160ff168481611c8d57fe5b04611c96565b60005b90506001600160801b03811615611cc957600380546001600160801b038082168401166001600160801b03199091161790555b611ce3818503600160801b8d6001600160801b03166132fd565b60018054909101905550505b8015611d7a5760008054600160e81b900460041c600f16908115611d1f578160ff168381611d1957fe5b04611d22565b60005b90506001600160801b03811615611d5457600380546001600160801b03600160801b8083048216850182160291161790555b611d6e818403600160801b8d6001600160801b03166132fd565b60028054909101905550505b8d6001600160a01b0316336001600160a01b03167fbdbdb71d7860376ba52b25a5028beea23581364a40522f6bcfb86bb1f2dca6338f8f86866040518085815260200184815260200183815260200182815260200194505050505060405180910390a350506000805460ff60f01b1916600160f01b179055505050505050505050505050565b600080548190600160f01b900460ff16611e47576040805162461bcd60e51b81526020600482015260036024820152624c4f4b60e81b604482015290519081900360640190fd5b6000805460ff60f01b19168155611e6160073389896141c2565b60038101549091506001600160801b0390811690861611611e825784611e91565b60038101546001600160801b03165b60038201549093506001600160801b03600160801b909104811690851611611eb95783611ecf565b6003810154600160801b90046001600160801b03165b91506001600160801b03831615611f34576003810180546001600160801b031981166001600160801b03918216869003821617909155611f34907f0000000000000000000000000000000000000000000000000000000000000000908a908616613b65565b6001600160801b03821615611f9a576003810180546001600160801b03600160801b808304821686900382160291811691909117909155611f9a907f0000000000000000000000000000000000000000000000000000000000000000908a908516613b65565b604080516001600160a01b038a1681526001600160801b0380861660208301528416818301529051600288810b92908a900b9133917f70935338e69775456a85ddef226c395fb668b63fa0115f5f20610b388e6ca9c0919081900360600190a4506000805460ff60f01b1916600160f01b17905590969095509350505050565b60076020526000908152604090208054600182015460028301546003909301546001600160801b0392831693919281811691600160801b90041685565b60066020526000908152604090205481565b7f000000000000000000000000000000000000000000000000000000000000000081565b600054600160f01b900460ff166120d1576040805162461bcd60e51b81526020600482015260036024820152624c4f4b60e81b604482015290519081900360640190fd5b6000805460ff60f01b1916905560408051638da5cb5b60e01b815290516001600160a01b037f00000000000000000000000000000000000000000000000000000000000000001691638da5cb5b916004808301926020929190829003018186803b15801561213e57600080fd5b505afa158015612152573d6000803e3d6000fd5b505050506040513d602081101561216857600080fd5b50516001600160a01b0316331461217e57600080fd5b60ff821615806121a1575060048260ff16101580156121a15750600a8260ff1611155b80156121cb575060ff811615806121cb575060048160ff16101580156121cb5750600a8160ff1611155b6121d457600080fd5b60008054610ff0600484901b16840160ff908116600160e81b90810260ff60e81b19841617909355919004167f973d8d92bb299f4af6ce49b52a8adb85ae46b9f214c4c4fc06ac77401237b1336010826040805160ff9390920683168252600f600486901c16602083015286831682820152918516606082015290519081900360800190a150506000805460ff60f01b1916600160f01b17905550565b600080548190600160f01b900460ff166122b8576040805162461bcd60e51b81526020600482015260036024820152624c4f4b60e81b604482015290519081900360640190fd5b6000805460ff60f01b1916905560408051638da5cb5b60e01b815290516001600160a01b037f00000000000000000000000000000000000000000000000000000000000000001691638da5cb5b916004808301926020929190829003018186803b15801561232557600080fd5b505afa158015612339573d6000803e3d6000fd5b505050506040513d602081101561234f57600080fd5b50516001600160a01b0316331461236557600080fd5b6003546001600160801b0390811690851611612381578361238e565b6003546001600160801b03165b6003549092506001600160801b03600160801b9091048116908416116123b457826123c8565b600354600160801b90046001600160801b03165b90506001600160801b03821615612449576003546001600160801b03838116911614156123f757600019909101905b600380546001600160801b031981166001600160801b03918216859003821617909155612449907f00000000000000000000000000000000000000000000000000000000000000009087908516613b65565b6001600160801b038116156124cf576003546001600160801b03828116600160801b90920416141561247a57600019015b600380546001600160801b03600160801b8083048216859003821602918116919091179091556124cf907f00000000000000000000000000000000000000000000000000000000000000009087908416613b65565b604080516001600160801b0380851682528316602082015281516001600160a01b0388169233927f596b573906218d3411850b26a6b437d6c4522fdb43d2d2386263f86d50b8b151929081900390910190a36000805460ff60f01b1916600160f01b1790559094909350915050565b606080612549612c11565b6125c0612554612c48565b858580806020026020016040519081016040528093929190818152602001838360200280828437600092018290525054600454600896959450600160a01b820460020b935061ffff600160b81b8304811693506001600160801b0390911691600160c81b900416614226565b915091509250929050565b600080548190600160f01b900460ff16612612576040805162461bcd60e51b81526020600482015260036024820152624c4f4b60e81b604482015290519081900360640190fd5b6000805460ff60f01b1916815560408051608081018252338152600288810b602083015287900b918101919091528190819061266b906060810161265e6001600160801b038a16613f37565b600003600f0b9052613f48565b925092509250816000039450806000039350600085118061268c5750600084115b156126cb576003830180546001600160801b038082168089018216600160801b93849004831689019092169092029091176001600160801b0319161790555b604080516001600160801b0388168152602081018790528082018690529051600289810b92908b900b9133917f0c396cd989a39f4459b5fa1aed6a9a8dcdbc45908acfd67e028cd568da98982c919081900360600190a450506000805460ff60f01b1916600160f01b179055509094909350915050565b600080600061274f612c11565b6127598585614380565b600285810b810b60009081526005602052604080822087840b90930b825281206003830154600681900b93600160381b82046001600160a01b0316928492600160d81b810463ffffffff169284929091600160f81b900460ff16806127bd57600080fd5b6003820154600681900b9850600160381b81046001600160a01b03169650600160d81b810463ffffffff169450600160f81b900460ff16806127fe57600080fd5b50506040805160e0810182526000546001600160a01b0381168252600160a01b8104600290810b810b810b6020840181905261ffff600160b81b8404811695850195909552600160c81b830485166060850152600160d81b8304909416608084015260ff600160e81b8304811660a0850152600160f01b909204909116151560c08301529093508e810b91900b121590506128a75750939094039650900393509003905061292a565b8a60020b816020015160020b121561291b5760006128c3612c48565b60208301516040840151600454606086015193945060009384936128f9936008938893879392916001600160801b0316906133ad565b9a9003989098039b50509490960392909203965090910303925061292a915050565b50949093039650039350900390505b9250925092565b7f000000000000000000000000000000000000000000000000000000000000000081565b7f000000000000000000000000000000000000000000000000000000000000000081565b7f000000000000000000000000000000000000000000000000000000000000000081565b600155565b7f000000000000000000000000000000000000000000000000000000000000000081565b60015481565b60056020526000908152604090208054600182015460028301546003909301546001600160801b03831693600160801b909304600f0b9290600681900b90600160381b81046001600160a01b031690600160d81b810463ffffffff1690600160f81b900460ff1688565b6000546001600160a01b031615612a79576040805162461bcd60e51b8152602060048201526002602482015261414960f01b604482015290519081900360640190fd5b6000612a84826136af565b9050600080612a9c612a94612c48565b600890614449565b6040805160e0810182526001600160a01b038816808252600288810b6020808501829052600085870181905261ffff898116606088018190529089166080880181905260a08801839052600160c0909801979097528154600160f01b6001600160a01b0319909116871762ffffff60a01b1916600160a01b62ffffff9787900b97909716969096029590951763ffffffff60b81b1916600160c81b9091021761ffff60d81b1916600160d81b9096029590951761ffff60e81b191692909217909355835191825281019190915281519395509193507f98636036cb66a9c19a37435efc1e90142190214e8abeb821bdba3f2990dd4c9592918290030190a150505050565b600255565b60008082600281900b620d89e71981612bba57fe5b05029050600083600281900b620d89e881612bd157fe5b0502905060008460020b83830360020b81612be857fe5b0560010190508062ffffff166001600160801b03801681612c0557fe5b0493505050505b919050565b306001600160a01b037f00000000000000000000000000000000000000000000000000000000000000001614612c4657600080fd5b565b620100075490565b60008060008460020b8660020b81612c6457fe5b05905060008660020b128015612c8b57508460020b8660020b81612c8457fe5b0760020b15155b15612c9557600019015b8315612d0a57600080612ca783614495565b600182810b810b600090815260208d9052604090205460ff83169190911b80016000190190811680151597509294509092509085612cec57888360ff16860302612cff565b88612cf6826144a7565b840360ff168603025b965050505050612d88565b600080612d1983600101614495565b91509150600060018260ff166001901b031990506000818b60008660010b60010b8152602001908152602001600020541690508060001415955085612d6b57888360ff0360ff16866001010102612d81565b8883612d7683614546565b0360ff168660010101025b9650505050505b5094509492505050565b60008060008360020b12612da9578260020b612db1565b8260020b6000035b9050620d89e8811115612def576040805162461bcd60e51b81526020600482015260016024820152601560fa1b604482015290519081900360640190fd5b600060018216612e0357600160801b612e15565b6ffffcb933bd6fad37aa2d162d1a5940015b70ffffffffffffffffffffffffffffffffff1690506002821615612e49576ffff97272373d413259a46990580e213a0260801c5b6004821615612e68576ffff2e50f5f656932ef12357cf3c7fdcc0260801c5b6008821615612e87576fffe5caca7e10e4e61c3624eaa0941cd00260801c5b6010821615612ea6576fffcb9843d60f6159c9db58835c9266440260801c5b6020821615612ec5576fff973b41fa98c081472e6896dfb254c00260801c5b6040821615612ee4576fff2ea16466c96a3843ec78b326b528610260801c5b6080821615612f03576ffe5dee046a99a2a811c461f1969c30530260801c5b610100821615612f23576ffcbe86c7900a88aedcffc83b479aa3a40260801c5b610200821615612f43576ff987a7253ac413176f2b074cf7815e540260801c5b610400821615612f63576ff3392b0822b70005940c7a398e4b70f30260801c5b610800821615612f83576fe7159475a2c29b7443b29c7fa6e889d90260801c5b611000821615612fa3576fd097f3bdfd2022b8845ad8f792aa58250260801c5b612000821615612fc3576fa9f746462d870fdf8a65dc1f90e061e50260801c5b614000821615612fe3576f70d869a156d2a1b890bb3df62baf32f70260801c5b618000821615613003576f31be135f97d08fd981231505542fcfa60260801c5b62010000821615613024576f09aa508b5b7a84e1c677de54f3e99bc90260801c5b62020000821615613044576e5d6af8dedb81196699c329225ee6040260801c5b62040000821615613063576d2216e584f5fa1ea926041bedfe980260801c5b62080000821615613080576b048a170391f7dc42444e8fa20260801c5b60008460020b131561309b57806000198161309757fe5b0490505b600160201b8106156130ae5760016130b1565b60005b60ff16602082901c0192505050919050565b60008080806001600160a01b03808916908a1610158187128015906131485760006130fc8989620f42400362ffffff16620f42406132fd565b905082613115576131108c8c8c6001614630565b613122565b6131228b8d8c60016146ab565b9550858110613133578a9650613142565b61313f8c8b8386614756565b96505b50613192565b8161315f5761315a8b8b8b60006146ab565b61316c565b61316c8a8c8b6000614630565b935083886000031061318057899550613192565b61318f8b8a8a600003856147a2565b95505b6001600160a01b038a81169087161482156131f5578080156131b15750815b6131c7576131c2878d8c60016146ab565b6131c9565b855b95508080156131d6575081155b6131ec576131e7878d8c6000614630565b6131ee565b845b945061323f565b8080156131ff5750815b613215576132108c888c6001614630565b613217565b855b9550808015613224575081155b61323a576132358c888c60006146ab565b61323c565b845b94505b8115801561324f57508860000385115b1561325b578860000394505b81801561327a57508a6001600160a01b0316876001600160a01b031614155b156132895785890393506132a6565b6132a3868962ffffff168a620f42400362ffffff16614188565b93505b50505095509550955095915050565b6000600160ff1b82106132c757600080fd5b5090565b808203828113156000831215146132e157600080fd5b92915050565b818101828112156000831215146132e157600080fd5b6000808060001985870986860292508281109083900303905080613333576000841161332857600080fd5b5082900490506133a6565b80841161333f57600080fd5b6000848688096000868103871696879004966002600389028118808a02820302808a02820302808a02820302808a02820302808a02820302808a02909103029181900381900460010186841190950394909402919094039290920491909117919091029150505b9392505050565b60008063ffffffff8716613453576000898661ffff1661ffff81106133ce57fe5b60408051608081018252919092015463ffffffff808216808452600160201b8304600690810b810b900b6020850152600160581b83046001600160a01b031694840194909452600160f81b90910460ff16151560608301529092508a161461343f5761343c818a89886147ee565b90505b806020015181604001519250925050613533565b8688036000806134688c8c858c8c8c8c614891565b91509150816000015163ffffffff168363ffffffff16141561349a578160200151826040015194509450505050613533565b805163ffffffff848116911614156134c2578060200151816040015194509450505050613533565b8151815160208085015190840151918390039286039163ffffffff80841692908516910360060b816134f057fe5b05028460200151018263ffffffff168263ffffffff1686604001518660400151036001600160a01b0316028161352257fe5b048560400151019650965050505050505b97509795505050505050565b600295860b860b60009081526020979097526040909620600181018054909503909455938301805490920390915560038201805463ffffffff600160d81b6001600160a01b03600160381b808504821690960316909402600160381b600160d81b031990921691909117600681810b90960390950b66ffffffffffffff1666ffffffffffffff199095169490941782810485169095039093160263ffffffff60d81b1990931692909217905554600160801b9004600f0b90565b60008082600f0b121561365e57826001600160801b03168260000384039150816001600160801b031610613659576040805162461bcd60e51b81526020600482015260026024820152614c5360f01b604482015290519081900360640190fd5b6132e1565b826001600160801b03168284019150816001600160801b031610156132e1576040805162461bcd60e51b81526020600482015260026024820152614c4160f01b604482015290519081900360640190fd5b60006401000276a36001600160a01b038316108015906136eb575073fffd8963efd1fc6a506488495d951d5263988d266001600160a01b038316105b613720576040805162461bcd60e51b81526020600482015260016024820152602960f91b604482015290519081900360640190fd5b640100000000600160c01b03602083901b166001600160801b03811160071b81811c67ffffffffffffffff811160061b90811c63ffffffff811160051b90811c61ffff811160041b90811c60ff8111600390811b91821c600f811160021b90811c918211600190811b92831c979088119617909417909217179091171717608081106137b457607f810383901c91506137be565b80607f0383901b91505b908002607f81811c60ff83811c9190911c800280831c81831c1c800280841c81841c1c800280851c81851c1c800280861c81861c1c800280871c81871c1c800280881c81881c1c800280891c81891c1c8002808a1c818a1c1c8002808b1c818b1c1c8002808c1c818c1c1c8002808d1c818d1c1c8002808e1c9c81901c9c909c1c80029c8d901c9e9d607f198f0160401b60c09190911c678000000000000000161760c19b909b1c674000000000000000169a909a1760c29990991c672000000000000000169890981760c39790971c671000000000000000169690961760c49590951c670800000000000000169490941760c59390931c670400000000000000169290921760c69190911c670200000000000000161760c79190911c600160381b161760c89190911c6680000000000000161760c99190911c6640000000000000161760ca9190911c6620000000000000161760cb9190911c6610000000000000161760cc9190911c6608000000000000161760cd9190911c66040000000000001617693627a301d71055774c8581026f028f6481ab7f045a5af012a19d003aa9198101608090811d906fdb2df09e81959a81455e260799a0632f8301901d600281810b9083900b146139bb57886001600160a01b031661399f82612d92565b6001600160a01b031611156139b457816139b6565b805b6139bd565b815b9998505050505050505050565b6000806000898961ffff1661ffff81106139e057fe5b60408051608081018252919092015463ffffffff808216808452600160201b8304600690810b810b900b6020850152600160581b83046001600160a01b031694840194909452600160f81b90910460ff161515606083015290925089161415613a4f5788859250925050613533565b8461ffff168461ffff16118015613a7057506001850361ffff168961ffff16145b15613a7d57839150613a81565b8491505b8161ffff168960010161ffff1681613a9557fe5b069250613aa4818989896147ee565b8a8461ffff1661ffff8110613ab557fe5b825191018054602084015160408501516060909501511515600160f81b026001600160f81b036001600160a01b03909616600160581b027fff0000000000000000000000000000000000000000ffffffffffffffffffffff60069390930b66ffffffffffffff16600160201b026affffffffffffff000000001963ffffffff90971663ffffffff199095169490941795909516929092171692909217929092161790555097509795505050505050565b604080516001600160a01b038481166024830152604480830185905283518084039091018152606490920183526020820180516001600160e01b031663a9059cbb60e01b1781529251825160009485949389169392918291908083835b60208310613be15780518252601f199092019160209182019101613bc2565b6001836020036101000a0380198251168184511680821785525050505050509050019150506000604051808303816000865af19150503d8060008114613c43576040519150601f19603f3d011682016040523d82523d6000602084013e613c48565b606091505b5091509150818015613c76575080511580613c765750808060200190516020811015613c7357600080fd5b50515b613cac576040805162461bcd60e51b81526020600482015260026024820152612a2360f11b604482015290519081900360640190fd5b5050505050565b604080513060248083019190915282518083039091018152604490910182526020810180516001600160e01b03166370a0823160e01b17815291518151600093849384936001600160a01b037f00000000000000000000000000000000000000000000000000000000000000001693919290918291908083835b60208310613d4c5780518252601f199092019160209182019101613d2d565b6001836020036101000a038019825116818451168082178552505050505050905001915050600060405180830381855afa9150503d8060008114613dac576040519150601f19603f3d011682016040523d82523d6000602084013e613db1565b606091505b5091509150818015613dc557506020815110155b613dce57600080fd5b808060200190516020811015613de357600080fd5b50519250505090565b808201828110156132e157600080fd5b604080513060248083019190915282518083039091018152604490910182526020810180516001600160e01b03166370a0823160e01b17815291518151600093849384936001600160a01b037f000000000000000000000000000000000000000000000000000000000000000016939192909182919080838360208310613d4c5780518252601f199092019160209182019101613d2d565b6000808361ffff1611613ed2576040805162461bcd60e51b81526020600482015260016024820152604960f81b604482015290519081900360640190fd5b8261ffff168261ffff1611613ee85750816133a6565b825b8261ffff168161ffff161015613f2e576001858261ffff1661ffff8110613f0d57fe5b01805463ffffffff191663ffffffff92909216919091179055600101613eea565b50909392505050565b80600f81900b8114612c0c57600080fd5b6000806000613f55612c11565b613f6784602001518560400151614380565b6040805160e0810182526000546001600160a01b0381168252600160a01b8104600290810b810b900b602080840182905261ffff600160b81b8404811685870152600160c81b84048116606080870191909152600160d81b8504909116608086015260ff600160e81b8504811660a0870152600160f01b909404909316151560c08501528851908901519489015192890151939461400b9491939092909190614a8b565b93508460600151600f0b60001461418057846020015160020b816020015160020b1215614060576140596140428660200151612d92565b61404f8760400151612d92565b8760600151614c40565b9250614180565b846040015160020b816020015160020b12156141565760045460408201516001600160801b03909116906140b290614096612c48565b60208501516060860151608087015160089493929187916139ca565b6000805461ffff60c81b1916600160c81b61ffff938416021761ffff60b81b1916600160b81b93909216929092021790558151604087015161410291906140f890612d92565b8860600151614c40565b93506141206141148760200151612d92565b83516060890151614c84565b92506141308187606001516135f9565b600480546001600160801b0319166001600160801b039290921691909117905550614180565b61417d6141668660200151612d92565b6141738760400151612d92565b8760600151614c84565b91505b509193909250565b60006141958484846132fd565b9050600082806141a157fe5b84860911156133a65760001981106141b857600080fd5b6001019392505050565b6040805160609490941b6bffffffffffffffffffffffff1916602080860191909152600293840b60e890811b60348701529290930b90911b60378401528051808403601a018152603a90930181528251928201929092206000908152929052902090565b60608060008361ffff1611614266576040805162461bcd60e51b81526020600482015260016024820152604960f81b604482015290519081900360640190fd5b865167ffffffffffffffff8111801561427e57600080fd5b506040519080825280602002602001820160405280156142a8578160200160208202803683370190505b509150865167ffffffffffffffff811180156142c357600080fd5b506040519080825280602002602001820160405280156142ed578160200160208202803683370190505b50905060005b87518110156143735761431e8a8a8a848151811061430d57fe5b60200260200101518a8a8a8a6133ad565b84838151811061432a57fe5b6020026020010184848151811061433d57fe5b60200260200101826001600160a01b03166001600160a01b03168152508260060b60060b815250505080806001019150506142f3565b5097509795505050505050565b8060020b8260020b126143c0576040805162461bcd60e51b8152602060048201526003602482015262544c5560e81b604482015290519081900360640190fd5b620d89e719600283900b1215614403576040805162461bcd60e51b8152602060048201526003602482015262544c4d60e81b604482015290519081900360640190fd5b620d89e8600282900b1315614445576040805162461bcd60e51b815260206004820152600360248201526254554d60e81b604482015290519081900360640190fd5b5050565b6040805160808101825263ffffffff9283168082526000602083018190529282019290925260016060909101819052835463ffffffff1916909117909116600160f81b17909155908190565b60020b600881901d9161010090910790565b60008082116144b557600080fd5b600160801b82106144c857608091821c91015b6801000000000000000082106144e057604091821c91015b600160201b82106144f357602091821c91015b62010000821061450557601091821c91015b610100821061451657600891821c91015b6010821061452657600491821c91015b6004821061453657600291821c91015b60028210612c0c57600101919050565b600080821161455457600080fd5b5060ff6001600160801b0382161561456f57607f1901614577565b608082901c91505b67ffffffffffffffff82161561459057603f1901614598565b604082901c91505b63ffffffff8216156145ad57601f19016145b5565b602082901c91505b61ffff8216156145c857600f19016145d0565b601082901c91505b60ff8216156145e257600719016145ea565b600882901c91505b600f8216156145fc5760031901614604565b600482901c91505b6003821615614616576001190161461e565b600282901c91505b6001821615612c0c5760001901919050565b6000836001600160a01b0316856001600160a01b03161115614650579293925b8161467d57614678836001600160801b03168686036001600160a01b0316600160601b6132fd565b6146a0565b6146a0836001600160801b03168686036001600160a01b0316600160601b614188565b90505b949350505050565b6000836001600160a01b0316856001600160a01b031611156146cb579293925b600160601b600160e01b03606084901b166001600160a01b0386860381169087166146f557600080fd5b8361472557866001600160a01b03166147188383896001600160a01b03166132fd565b8161471f57fe5b0461474b565b61474b61473c8383896001600160a01b0316614188565b886001600160a01b0316614cb3565b979650505050505050565b600080856001600160a01b03161161476d57600080fd5b6000846001600160801b03161161478357600080fd5b81614795576146788585856001614cbe565b6146a08585856001614d9f565b600080856001600160a01b0316116147b957600080fd5b6000846001600160801b0316116147cf57600080fd5b816147e1576146788585856000614d9f565b6146a08585856000614cbe565b6147f66155bf565b600085600001518503905060405180608001604052808663ffffffff1681526020018263ffffffff168660020b0288602001510160060b81526020016000856001600160801b03161161484a57600161484c565b845b6001600160801b031663ffffffff60801b608085901b168161486a57fe5b048860400151016001600160a01b0316815260200160011515815250915050949350505050565b6148996155bf565b6148a16155bf565b888561ffff1661ffff81106148b257fe5b60408051608081018252919092015463ffffffff8116808352600160201b8204600690810b810b900b6020840152600160581b82046001600160a01b031693830193909352600160f81b900460ff1615156060820152925061491690899089614e82565b1561494e578663ffffffff16826000015163ffffffff16141561493857613533565b81614945838989886147ee565b91509150613533565b888361ffff168660010161ffff168161496357fe5b0661ffff1661ffff811061497357fe5b60408051608081018252929091015463ffffffff81168352600160201b8104600690810b810b900b60208401526001600160a01b03600160581b8204169183019190915260ff600160f81b90910416151560608201819052909250614a2857604080516080810182528a5463ffffffff81168252600160201b8104600690810b810b900b6020830152600160581b81046001600160a01b031692820192909252600160f81b90910460ff161515606082015291505b614a3788836000015189614e82565b614a6e576040805162461bcd60e51b815260206004820152600360248201526213d31160ea1b604482015290519081900360640190fd5b614a7b8989898887614f43565b9150915097509795505050505050565b6000614a9a60078787876141c2565b60015460025491925090600080600f87900b15614be0576000614abb612c48565b6000805460045492935090918291614b059160089186918591600160a01b810460020b9161ffff600160b81b83048116926001600160801b0390921691600160c81b9004166133ad565b9092509050614b3f60058d8b8d8b8b87898b60007f00000000000000000000000000000000000000000000000000000000000000006150e1565b9450614b7660058c8b8d8b8b87898b60017f00000000000000000000000000000000000000000000000000000000000000006150e1565b93508415614baa57614baa60068d7f000000000000000000000000000000000000000000000000000000000000000061529a565b8315614bdc57614bdc60068c7f000000000000000000000000000000000000000000000000000000000000000061529a565b5050505b600080614bf260058c8c8b8a8a615300565b9092509050614c03878a84846153ac565b600089600f0b1215614c31578315614c2057614c2060058c615541565b8215614c3157614c3160058b615541565b50505050505095945050505050565b60008082600f0b12614c6657614c61614c5c85858560016146ab565b6132b5565b6146a3565b614c79614c5c85858560000360006146ab565b600003949350505050565b60008082600f0b12614ca057614c61614c5c8585856001614630565b614c79614c5c8585856000036000614630565b808204910615150190565b60008115614d315760006001600160a01b03841115614cf457614cef84600160601b876001600160801b03166132fd565b614d0c565b6001600160801b038516606085901b81614d0a57fe5b045b9050614d29614d246001600160a01b03881683613dec565b61556d565b9150506146a3565b60006001600160a01b03841115614d5f57614d5a84600160601b876001600160801b0316614188565b614d76565b614d76606085901b6001600160801b038716614cb3565b905080866001600160a01b031611614d8d57600080fd5b6001600160a01b0386160390506146a3565b600082614dad5750836146a3565b600160601b600160e01b03606085901b168215614e3b576001600160a01b03861684810290858281614ddb57fe5b041415614e0c57818101828110614e0a57614e0083896001600160a01b031683614188565b93505050506146a3565b505b614e3282614e2d878a6001600160a01b03168681614e2657fe5b0490613dec565b614cb3565b925050506146a3565b6001600160a01b03861684810290858281614e5257fe5b04148015614e5f57508082115b614e6857600080fd5b808203614e00614d24846001600160a01b038b1684614188565b60008363ffffffff168363ffffffff1611158015614eac57508363ffffffff168263ffffffff1611155b15614ec8578163ffffffff168363ffffffff16111590506133a6565b60008463ffffffff168463ffffffff1611614eef578363ffffffff16600160201b01614ef7565b8363ffffffff165b64ffffffffff16905060008563ffffffff168463ffffffff1611614f27578363ffffffff16600160201b01614f2f565b8363ffffffff165b64ffffffffff169091111595945050505050565b614f4b6155bf565b614f536155bf565b60008361ffff168560010161ffff1681614f6957fe5b0661ffff169050600060018561ffff16830103905060005b506002818301048961ffff87168281614f9657fe5b0661ffff8110614fa257fe5b60408051608081018252929091015463ffffffff81168352600160201b8104600690810b810b900b60208401526001600160a01b03600160581b8204169183019190915260ff600160f81b9091041615156060820181905290955061500c57806001019250614f81565b898661ffff16826001018161501d57fe5b0661ffff811061502957fe5b60408051608081018252929091015463ffffffff81168352600160201b8104600690810b810b900b60208401526001600160a01b03600160581b8204169183019190915260ff600160f81b90910416151560608201528551909450600090615093908b908b614e82565b90508080156150ac57506150ac8a8a8760000151614e82565b156150b757506150d4565b806150c7576001820392506150ce565b8160010193505b50614f81565b5050509550959350505050565b60028a810b900b600090815260208c90526040812080546001600160801b03168261510c828d6135f9565b9050846001600160801b0316816001600160801b0316111561515a576040805162461bcd60e51b81526020600482015260026024820152614c4f60f01b604482015290519081900360640190fd5b6001600160801b0382811615908216158114159450156151ff578c60020b8e60020b136151e757600183018b9055600283018a9055600383018054600160381b600160d81b031916600160381b6001600160a01b038c16021766ffffffffffffff191666ffffffffffffff60068b900b161763ffffffff60d81b1916600160d81b63ffffffff8a16021790555b6003830180546001600160f81b0316600160f81b1790555b82546001600160801b0319166001600160801b038216178355856152485782546152439061523e90600160801b9004600f90810b810b908f900b6132e7565b613f37565b615269565b82546152699061523e90600160801b9004600f90810b810b908f900b6132cb565b8354600f9190910b6001600160801b03908116600160801b0291161790925550909c9b505050505050505050505050565b8060020b8260020b816152a957fe5b0760020b156152b757600080fd5b6000806152d28360020b8560020b816152cc57fe5b05614495565b600191820b820b60009081526020979097526040909620805460ff9097169190911b90951890945550505050565b600285810b80820b60009081526020899052604080822088850b850b83529082209193849391929184918291908a900b1261534657505060018201546002830154615359565b8360010154880391508360020154870390505b6000808b60020b8b60020b121561537b5750506001830154600284015461538e565b84600101548a0391508460020154890390505b92909803979097039b96909503949094039850939650505050505050565b6040805160a08101825285546001600160801b0390811682526001870154602083015260028701549282019290925260038601548083166060830152600160801b900490911660808201526000600f85900b61544b5781516001600160801b0316615443576040805162461bcd60e51b815260206004820152600260248201526104e560f41b604482015290519081900360640190fd5b50805161545a565b815161545790866135f9565b90505b600061547e8360200151860384600001516001600160801b0316600160801b6132fd565b905060006154a48460400151860385600001516001600160801b0316600160801b6132fd565b905086600f0b6000146154cb5787546001600160801b0319166001600160801b0384161788555b60018801869055600288018590556001600160801b0382161515806154f957506000816001600160801b0316115b15615537576003880180546001600160801b031981166001600160801b039182168501821617808216600160801b9182900483168501909216021790555b5050505050505050565b600290810b810b6000908152602092909252604082208281556001810183905590810182905560030155565b806001600160a01b0381168114612c0c57600080fd5b6040805160e081018252600080825260208201819052918101829052606081018290526080810182905260a0810182905260c081019190915290565b6040805160808101825260008082526020820181905291810182905260608101919091529056fea264697066735822122031b8bc77fb717aff3388644748286c39c06d11d2e20cc13f62c04bff97e603ec64736f6c63430007060033a26469706673582212203c180831f4258329e0ff93cf0938533bdbfa23d9bde6671158949370ef16fa6a64736f6c63430007060033",
    "linkReferences": {}
  },
  "methodIdentifiers": {
    "deploy(address,address,address,uint24,int24)": "fad5359f",
    "parameters()": "89035730"
  },
  "id": 40
}